{
  "_format": "hh-sol-artifact-1",
  "contractName": "MarketPlace",
  "sourceName": "contracts/MarketPlace.sol",
  "abi": [
    {
      "anonymous": false,
      "inputs": [
        {
          "indexed": true,
          "internalType": "uint256",
          "name": "itemId",
          "type": "uint256"
        },
        {
          "indexed": true,
          "internalType": "address",
          "name": "bidder",
          "type": "address"
        },
        {
          "indexed": false,
          "internalType": "uint256",
          "name": "amount",
          "type": "uint256"
        }
      ],
      "name": "MarketItemBid",
      "type": "event"
    },
    {
      "anonymous": false,
      "inputs": [
        {
          "indexed": true,
          "internalType": "uint256",
          "name": "itemId",
          "type": "uint256"
        },
        {
          "indexed": true,
          "internalType": "address",
          "name": "nftContract",
          "type": "address"
        },
        {
          "indexed": true,
          "internalType": "uint256",
          "name": "tokenId",
          "type": "uint256"
        },
        {
          "indexed": false,
          "internalType": "address",
          "name": "seller",
          "type": "address"
        },
        {
          "indexed": false,
          "internalType": "address",
          "name": "owner",
          "type": "address"
        },
        {
          "indexed": false,
          "internalType": "uint256",
          "name": "price",
          "type": "uint256"
        }
      ],
      "name": "MarketItemCreated",
      "type": "event"
    },
    {
      "anonymous": false,
      "inputs": [
        {
          "indexed": false,
          "internalType": "uint256",
          "name": "itemId",
          "type": "uint256"
        },
        {
          "indexed": true,
          "internalType": "address",
          "name": "nftContract",
          "type": "address"
        },
        {
          "indexed": true,
          "internalType": "address",
          "name": "seller",
          "type": "address"
        },
        {
          "indexed": true,
          "internalType": "address",
          "name": "newOwner",
          "type": "address"
        }
      ],
      "name": "MarketItemSold",
      "type": "event"
    },
    {
      "anonymous": false,
      "inputs": [
        {
          "indexed": false,
          "internalType": "uint256",
          "name": "itemId",
          "type": "uint256"
        }
      ],
      "name": "MarketItemUnlisted",
      "type": "event"
    },
    {
      "inputs": [],
      "name": "ERC2981INTERFACE",
      "outputs": [
        {
          "internalType": "bytes4",
          "name": "",
          "type": "bytes4"
        }
      ],
      "stateMutability": "view",
      "type": "function"
    },
    {
      "inputs": [],
      "name": "ERC721INTERFACE",
      "outputs": [
        {
          "internalType": "bytes4",
          "name": "",
          "type": "bytes4"
        }
      ],
      "stateMutability": "view",
      "type": "function"
    },
    {
      "inputs": [
        {
          "internalType": "uint256",
          "name": "itemId",
          "type": "uint256"
        }
      ],
      "name": "createAuctionBid",
      "outputs": [],
      "stateMutability": "payable",
      "type": "function"
    },
    {
      "inputs": [
        {
          "internalType": "address",
          "name": "nftContract",
          "type": "address"
        },
        {
          "internalType": "uint256",
          "name": "itemId",
          "type": "uint256"
        }
      ],
      "name": "createAuctionSale",
      "outputs": [],
      "stateMutability": "payable",
      "type": "function"
    },
    {
      "inputs": [
        {
          "internalType": "address",
          "name": "nftContract",
          "type": "address"
        },
        {
          "internalType": "uint256",
          "name": "tokenId",
          "type": "uint256"
        },
        {
          "internalType": "uint256",
          "name": "floorPrice",
          "type": "uint256"
        },
        {
          "internalType": "uint256",
          "name": "auctionDays",
          "type": "uint256"
        }
      ],
      "name": "createMarketAuction",
      "outputs": [],
      "stateMutability": "payable",
      "type": "function"
    },
    {
      "inputs": [
        {
          "internalType": "address",
          "name": "nftContract",
          "type": "address"
        },
        {
          "internalType": "uint256",
          "name": "tokenId",
          "type": "uint256"
        },
        {
          "internalType": "uint256",
          "name": "price",
          "type": "uint256"
        }
      ],
      "name": "createMarketItem",
      "outputs": [],
      "stateMutability": "payable",
      "type": "function"
    },
    {
      "inputs": [
        {
          "internalType": "address",
          "name": "nftContract",
          "type": "address"
        },
        {
          "internalType": "uint256",
          "name": "itemId",
          "type": "uint256"
        }
      ],
      "name": "createMarketSale",
      "outputs": [],
      "stateMutability": "payable",
      "type": "function"
    },
    {
      "inputs": [],
      "name": "fetchItemsCreated",
      "outputs": [
        {
          "components": [
            {
              "internalType": "uint256",
              "name": "itemId",
              "type": "uint256"
            },
            {
              "internalType": "address",
              "name": "nftContract",
              "type": "address"
            },
            {
              "internalType": "uint256",
              "name": "tokenId",
              "type": "uint256"
            },
            {
              "internalType": "address payable",
              "name": "creator",
              "type": "address"
            },
            {
              "internalType": "address payable",
              "name": "seller",
              "type": "address"
            },
            {
              "internalType": "address payable",
              "name": "owner",
              "type": "address"
            },
            {
              "internalType": "uint256",
              "name": "price",
              "type": "uint256"
            },
            {
              "internalType": "uint256",
              "name": "royalty",
              "type": "uint256"
            },
            {
              "internalType": "bool",
              "name": "isAuction",
              "type": "bool"
            },
            {
              "internalType": "bool",
              "name": "sold",
              "type": "bool"
            }
          ],
          "internalType": "struct MarketPlace.MarketItem[]",
          "name": "",
          "type": "tuple[]"
        }
      ],
      "stateMutability": "view",
      "type": "function"
    },
    {
      "inputs": [],
      "name": "fetchMarketItems",
      "outputs": [
        {
          "components": [
            {
              "internalType": "uint256",
              "name": "itemId",
              "type": "uint256"
            },
            {
              "internalType": "address",
              "name": "nftContract",
              "type": "address"
            },
            {
              "internalType": "uint256",
              "name": "tokenId",
              "type": "uint256"
            },
            {
              "internalType": "address payable",
              "name": "creator",
              "type": "address"
            },
            {
              "internalType": "address payable",
              "name": "seller",
              "type": "address"
            },
            {
              "internalType": "address payable",
              "name": "owner",
              "type": "address"
            },
            {
              "internalType": "uint256",
              "name": "price",
              "type": "uint256"
            },
            {
              "internalType": "uint256",
              "name": "royalty",
              "type": "uint256"
            },
            {
              "internalType": "bool",
              "name": "isAuction",
              "type": "bool"
            },
            {
              "internalType": "bool",
              "name": "sold",
              "type": "bool"
            }
          ],
          "internalType": "struct MarketPlace.MarketItem[]",
          "name": "",
          "type": "tuple[]"
        },
        {
          "components": [
            {
              "internalType": "uint256",
              "name": "highestBid",
              "type": "uint256"
            },
            {
              "internalType": "address",
              "name": "highestBidder",
              "type": "address"
            },
            {
              "internalType": "uint256",
              "name": "timeEnding",
              "type": "uint256"
            }
          ],
          "internalType": "struct MarketPlace.AuctionInfo[]",
          "name": "",
          "type": "tuple[]"
        }
      ],
      "stateMutability": "view",
      "type": "function"
    },
    {
      "inputs": [],
      "name": "fetchMyNFTs",
      "outputs": [
        {
          "components": [
            {
              "internalType": "uint256",
              "name": "itemId",
              "type": "uint256"
            },
            {
              "internalType": "address",
              "name": "nftContract",
              "type": "address"
            },
            {
              "internalType": "uint256",
              "name": "tokenId",
              "type": "uint256"
            },
            {
              "internalType": "address payable",
              "name": "creator",
              "type": "address"
            },
            {
              "internalType": "address payable",
              "name": "seller",
              "type": "address"
            },
            {
              "internalType": "address payable",
              "name": "owner",
              "type": "address"
            },
            {
              "internalType": "uint256",
              "name": "price",
              "type": "uint256"
            },
            {
              "internalType": "uint256",
              "name": "royalty",
              "type": "uint256"
            },
            {
              "internalType": "bool",
              "name": "isAuction",
              "type": "bool"
            },
            {
              "internalType": "bool",
              "name": "sold",
              "type": "bool"
            }
          ],
          "internalType": "struct MarketPlace.MarketItem[]",
          "name": "",
          "type": "tuple[]"
        }
      ],
      "stateMutability": "view",
      "type": "function"
    },
    {
      "inputs": [],
      "name": "fetchUserBids",
      "outputs": [
        {
          "components": [
            {
              "internalType": "uint256",
              "name": "itemId",
              "type": "uint256"
            },
            {
              "internalType": "address",
              "name": "nftContract",
              "type": "address"
            },
            {
              "internalType": "uint256",
              "name": "tokenId",
              "type": "uint256"
            },
            {
              "internalType": "address payable",
              "name": "creator",
              "type": "address"
            },
            {
              "internalType": "address payable",
              "name": "seller",
              "type": "address"
            },
            {
              "internalType": "address payable",
              "name": "owner",
              "type": "address"
            },
            {
              "internalType": "uint256",
              "name": "price",
              "type": "uint256"
            },
            {
              "internalType": "uint256",
              "name": "royalty",
              "type": "uint256"
            },
            {
              "internalType": "bool",
              "name": "isAuction",
              "type": "bool"
            },
            {
              "internalType": "bool",
              "name": "sold",
              "type": "bool"
            }
          ],
          "internalType": "struct MarketPlace.MarketItem[]",
          "name": "",
          "type": "tuple[]"
        },
        {
          "components": [
            {
              "internalType": "uint256",
              "name": "highestBid",
              "type": "uint256"
            },
            {
              "internalType": "address",
              "name": "highestBidder",
              "type": "address"
            },
            {
              "internalType": "uint256",
              "name": "timeEnding",
              "type": "uint256"
            }
          ],
          "internalType": "struct MarketPlace.AuctionInfo[]",
          "name": "",
          "type": "tuple[]"
        }
      ],
      "stateMutability": "view",
      "type": "function"
    },
    {
      "inputs": [
        {
          "internalType": "uint256",
          "name": "itemId",
          "type": "uint256"
        }
      ],
      "name": "unlistItem",
      "outputs": [],
      "stateMutability": "nonpayable",
      "type": "function"
    }
  ],
  "bytecode": "0x608060405234801561001057600080fd5b5060016000556129fd806100256000396000f3fe6080604052600436106100a75760003560e01c80635a599da8116100645780635a599da8146101595780635f3d48061461017957806362822f801461018e578063be87e081146101a1578063c23b139e146101b4578063f064c32e146101c7576100a7565b806307cb1a6e146100ac5780630f08efe0146100d75780631879c750146100fa578063202e37401461010f57806348b7e2b71461013157806358eb2df514610146575b600080fd5b3480156100b857600080fd5b506100c16101dc565b6040516100ce9190612529565b60405180910390f35b3480156100e357600080fd5b506100ec6101e7565b6040516100ce9291906124b6565b34801561010657600080fd5b506100c1610491565b34801561011b57600080fd5b5061012461049c565b6040516100ce91906124a3565b61014461013f36600461225f565b6106b4565b005b6101446101543660046122b7565b61097d565b34801561016557600080fd5b50610144610174366004612345565b610e97565b34801561018557600080fd5b506100ec6110f9565b61014461019c366004612345565b6113d9565b6101446101af3660046122eb565b61156a565b6101446101c236600461225f565b611bd0565b3480156101d357600080fd5b50610124611e59565b6380ac58cd60e01b81565b60608060006101f66001612068565b905060006102046002612068565b61020e6001612068565b6102189190612967565b90506000808267ffffffffffffffff81111561024457634e487b7160e01b600052604160045260246000fd5b60405190808252806020026020018201604052801561027d57816020015b61026a6121be565b8152602001906001900390816102625790505b50905060008367ffffffffffffffff8111156102a957634e487b7160e01b600052604160045260246000fd5b6040519080825280602002602001820160405280156102e257816020015b6102cf612212565b8152602001906001900390816102c75790505b50905060005b8581101561048457600360006102ff836001612930565b8152602081019190915260400160002060080154610100900460ff1661047257600061032c826001612930565b60008181526003602081815260408084206004808452948290208251610140810184528254815260018301546001600160a01b039081169582019590955260028301549381019390935293810154831660608301529384015482166080820152600584015490911660a0820152600683015460c0820152600783015460e0820152600883015460ff808216151561010080850191909152909104161515610120820152875193945091929091908790899081106103f957634e487b7160e01b600052603260045260246000fd5b602090810291909101810191909152604080516060810182528354815260018401546001600160a01b031692810192909252600283015490820152855186908990811061045657634e487b7160e01b600052603260045260246000fd5b602090810291909101015261046c600188612930565b96505050505b8061047c8161297e565b9150506102e8565b5090955093505050509091565b63152a902d60e11b81565b606060006104aa6001612068565b905060008060005b8381101561050d5733600360006104ca846001612930565b81526020810191909152604001600020600501546001600160a01b031614156104fb576104f8600184612930565b92505b806105058161297e565b9150506104b2565b5060008267ffffffffffffffff81111561053757634e487b7160e01b600052604160045260246000fd5b60405190808252806020026020018201604052801561057057816020015b61055d6121be565b8152602001906001900390816105555790505b50905060005b848110156106ab57336003600061058e846001612930565b81526020810191909152604001600020600501546001600160a01b031614156106995760006105be826001612930565b6000818152600360208181526040928390208351610140810185528154815260018201546001600160a01b0390811693820193909352600282015494810194909452918201548116606084015260048201548116608084015260058201541660a0830152600681015460c0830152600781015460e0830152600881015460ff80821615156101008086019190915290910416151561012083015285519293509185908790811061067e57634e487b7160e01b600052603260045260246000fd5b6020908102919091010152610694600186612930565b945050505b806106a38161297e565b915050610576565b50935050505090565b600260005414156106e05760405162461bcd60e51b81526004016106d79061283b565b60405180910390fd5b6002600090815581815260036020908152604080832060049092529091206008820154610100900460ff16156107285760405162461bcd60e51b81526004016106d790612796565b600882015460ff1661074c5760405162461bcd60e51b81526004016106d790612575565b4281600201541061076f5760405162461bcd60e51b81526004016106d7906127cd565b60018101546001600160a01b0316331461079b5760405162461bcd60e51b81526004016106d790612651565b600482015460038301546001600160a01b03908116911614156107f95760018201546040516001600160a01b03909116903480156108fc02916000818181858888f193505050501580156107f3573d6000803e3d6000fd5b50610888565b600482015460078301546040516001600160a01b039092169181156108fc0291906000818181858888f19350505050158015610839573d6000803e3d6000fd5b50600482015460078301546001600160a01b03909116906108fc9061085e9034612967565b6040518115909202916000818181858888f19350505050158015610886573d6000803e3d6000fd5b505b60028201546040516323b872dd60e01b81526001600160a01b038616916323b872dd916108bc91309133919060040161247f565b600060405180830381600087803b1580156108d657600080fd5b505af11580156108ea573d6000803e3d6000fd5b5050506005830180546001600160a01b031916331790555060088201805461ff00191661010017905561091d600261206c565b600582015460048301546040516001600160a01b0392831692918216918716907f947311168d2a40fc244919c4730e9cdd04e55a2c2db85589585acb09f89efe1e9061096a908890612919565b60405180910390a4505060016000555050565b600260005414156109a05760405162461bcd60e51b81526004016106d79061283b565b6002600055806109c25760405162461bcd60e51b81526004016106d7906128b7565b6109d3836380ac58cd60e01b612075565b6109ef5760405162461bcd60e51b81526004016106d7906125ac565b6040516331a9108f60e11b815233906001600160a01b03851690636352211e90610a1d908690600401612919565b60206040518083038186803b158015610a3557600080fd5b505afa158015610a49573d6000803e3d6000fd5b505050506040513d601f19601f82011682018060405250810190610a6d919061223c565b6001600160a01b031614610a935760405162461bcd60e51b81526004016106d79061261a565b610a9d600161206c565b6000610aa96001612068565b9050610abc8463152a902d60e11b612075565b15610cf157600080856001600160a01b0316632a55205a86866040518363ffffffff1660e01b8152600401610af2929190612922565b604080518083038186803b158015610b0957600080fd5b505afa158015610b1d573d6000803e3d6000fd5b505050506040513d601f19601f82011682018060405250810190610b41919061228a565b91509150604051806101400160405280848152602001876001600160a01b03168152602001868152602001836001600160a01b03168152602001336001600160a01b0316815260200160006001600160a01b0316815260200185815260200182815260200160001515815260200160001515815250600360008581526020019081526020016000206000820151816000015560208201518160010160006101000a8154816001600160a01b0302191690836001600160a01b031602179055506040820151816002015560608201518160030160006101000a8154816001600160a01b0302191690836001600160a01b0316021790555060808201518160040160006101000a8154816001600160a01b0302191690836001600160a01b0316021790555060a08201518160050160006101000a8154816001600160a01b0302191690836001600160a01b0316021790555060c0820151816006015560e082015181600701556101008201518160080160006101000a81548160ff0219169083151502179055506101208201518160080160016101000a81548160ff0219169083151502179055509050505050610df5565b60408051610140810182528281526001600160a01b038681166020808401918252838501888152336060860181815260808701918252600060a0880181815260c089018c815260e08a01838152610100808c018581526101208d018681528f875260039a8b90529d9095209b518c55985160018c0180546001600160a01b0319908116928d16929092179055965160028c01559351968a0180548716978a16979097179096559251600489018054861691891691909117905591516005880180549094169616959095179091559051600685015591516007840155905160089092018054935160ff19949094169215159290921761ff001916921515029190911790555b6040516323b872dd60e01b81526001600160a01b038516906323b872dd90610e259033903090889060040161247f565b600060405180830381600087803b158015610e3f57600080fd5b505af1158015610e53573d6000803e3d6000fd5b5050505082846001600160a01b0316827f2ad024d53a0dc50c130967f8d4941927ee087ea31394cebb2b9599d3706c9c003360008760405161096a9392919061247f565b60026000541415610eba5760405162461bcd60e51b81526004016106d79061283b565b6002600090815581815260036020526040902060080154610100900460ff1615610ef65760405162461bcd60e51b81526004016106d79061253e565b6000818152600360205260409020600401546001600160a01b03163314610f2f5760405162461bcd60e51b81526004016106d790612686565b60008181526003602052604090206008015460ff1615610fc6576000818152600460205260409020805415610f9d57600181015481546040516001600160a01b039092169181156108fc0291906000818181858888f19350505050158015610f9b573d6000803e3d6000fd5b505b5060008181526004602052604081208181556001810180546001600160a01b0319169055600201555b60008181526003602052604090819020600181015460029091015491516323b872dd60e01b81526001600160a01b03909116916323b872dd9161101091309133919060040161247f565b600060405180830381600087803b15801561102a57600080fd5b505af115801561103e573d6000803e3d6000fd5b505050600082815260036020819052604082208281556001810180546001600160a01b031990811690915560028083018590559282018054821690556004820180548216905560058201805490911690556006810183905560078101929092556008909101805461ffff19166101001790556110ba915061206c565b7f1cda23a20f33fe41e032453215b343b1a71ca2d5d923673971254f6c73389480816040516110e99190612919565b60405180910390a1506001600055565b60608060006111086001612068565b905060008060005b8381101561116b573360046000611128846001612930565b81526020810191909152604001600020600101546001600160a01b0316141561115957611156600184612930565b92505b806111638161297e565b915050611110565b5060008267ffffffffffffffff81111561119557634e487b7160e01b600052604160045260246000fd5b6040519080825280602002602001820160405280156111ce57816020015b6111bb6121be565b8152602001906001900390816111b35790505b50905060008367ffffffffffffffff8111156111fa57634e487b7160e01b600052604160045260246000fd5b60405190808252806020026020018201604052801561123357816020015b611220612212565b8152602001906001900390816112185790505b50905060005b85811015610484573360036000611251846001612930565b81526020810191909152604001600020600501546001600160a01b031614156113c7576000611281826001612930565b60008181526003602081815260408084206004808452948290208251610140810184528254815260018301546001600160a01b039081169582019590955260028301549381019390935293810154831660608301529384015482166080820152600584015490911660a0820152600683015460c0820152600783015460e0820152600883015460ff8082161515610100808501919091529091041615156101208201528751939450919290919087908990811061134e57634e487b7160e01b600052603260045260246000fd5b602090810291909101810191909152604080516060810182528354815260018401546001600160a01b03169281019290925260028301549082015285518690899081106113ab57634e487b7160e01b600052603260045260246000fd5b60209081029190910101526113c1600188612930565b96505050505b806113d18161297e565b915050611239565b600260005414156113fc5760405162461bcd60e51b81526004016106d79061283b565b6002600090815581815260036020908152604080832060049092529091206008820154610100900460ff16156114445760405162461bcd60e51b81526004016106d790612796565b600882015460ff166114685760405162461bcd60e51b81526004016106d790612575565b4281600201541161148b5760405162461bcd60e51b81526004016106d7906125e3565b816006015434116114ae5760405162461bcd60e51b81526004016106d790612872565b805434116114ce5760405162461bcd60e51b81526004016106d790612749565b600181015481546040516001600160a01b039092169181156108fc0291906000818181858888f1935050505015801561150b573d6000803e3d6000fd5b506001810180546001600160a01b031916339081179091553480835560405185917f15b8c46b3adaaaed6a15b987e48c55b5004e791f99bd3864378d38d4f355008f916115589190612919565b60405180910390a35050600160005550565b6002600054141561158d5760405162461bcd60e51b81526004016106d79061283b565b6002600055816115af5760405162461bcd60e51b81526004016106d7906128b7565b600081116115cf5760405162461bcd60e51b81526004016106d790612712565b6115e0846380ac58cd60e01b612075565b6115fc5760405162461bcd60e51b81526004016106d7906125ac565b6040516331a9108f60e11b815233906001600160a01b03861690636352211e9061162a908790600401612919565b60206040518083038186803b15801561164257600080fd5b505afa158015611656573d6000803e3d6000fd5b505050506040513d601f19601f8201168201806040525081019061167a919061223c565b6001600160a01b0316146116a05760405162461bcd60e51b81526004016106d79061261a565b6116aa600161206c565b60006116b66001612068565b90506116c98563152a902d60e11b612075565b156118fe57600080866001600160a01b0316632a55205a87876040518363ffffffff1660e01b81526004016116ff929190612922565b604080518083038186803b15801561171657600080fd5b505afa15801561172a573d6000803e3d6000fd5b505050506040513d601f19601f8201168201806040525081019061174e919061228a565b91509150604051806101400160405280848152602001886001600160a01b03168152602001878152602001836001600160a01b03168152602001336001600160a01b0316815260200160006001600160a01b0316815260200186815260200182815260200160011515815260200160001515815250600360008581526020019081526020016000206000820151816000015560208201518160010160006101000a8154816001600160a01b0302191690836001600160a01b031602179055506040820151816002015560608201518160030160006101000a8154816001600160a01b0302191690836001600160a01b0316021790555060808201518160040160006101000a8154816001600160a01b0302191690836001600160a01b0316021790555060a08201518160050160006101000a8154816001600160a01b0302191690836001600160a01b0316021790555060c0820151816006015560e082015181600701556101008201518160080160006101000a81548160ff0219169083151502179055506101208201518160080160016101000a81548160ff0219169083151502179055509050505050611aad565b60003390506000604051806101400160405280848152602001886001600160a01b03168152602001878152602001836001600160a01b03168152602001336001600160a01b0316815260200160006001600160a01b0316815260200186815260200182815260200160011515815260200160001515815250600360008581526020019081526020016000206000820151816000015560208201518160010160006101000a8154816001600160a01b0302191690836001600160a01b031602179055506040820151816002015560608201518160030160006101000a8154816001600160a01b0302191690836001600160a01b0316021790555060808201518160040160006101000a8154816001600160a01b0302191690836001600160a01b0316021790555060a08201518160050160006101000a8154816001600160a01b0302191690836001600160a01b0316021790555060c0820151816006015560e082015181600701556101008201518160080160006101000a81548160ff0219169083151502179055506101208201518160080160016101000a81548160ff02191690831515021790555090505050505b6040516323b872dd60e01b81526001600160a01b038616906323b872dd90611add9033903090899060040161247f565b600060405180830381600087803b158015611af757600080fd5b505af1158015611b0b573d6000803e3d6000fd5b50506040805160608101825260008082526020820152925082019050611b348462015180612948565b611b3e9042612930565b9052600082815260046020908152604080832084518155918401516001830180546001600160a01b0319166001600160a01b039283161790559381015160029092019190915551869288169184917f2ad024d53a0dc50c130967f8d4941927ee087ea31394cebb2b9599d3706c9c0091611bbc913391908a9061247f565b60405180910390a450506001600055505050565b60026000541415611bf35760405162461bcd60e51b81526004016106d79061283b565b60026000908155818152600360205260409020600881015460ff1615611c2b5760405162461bcd60e51b81526004016106d790612804565b80600601543414611c4e5760405162461bcd60e51b81526004016106d7906126b4565b6008810154610100900460ff1615611c785760405162461bcd60e51b81526004016106d7906128ee565b600481015460038201546001600160a01b0390811691161415611cd65760018101546040516001600160a01b03909116903480156108fc02916000818181858888f19350505050158015611cd0573d6000803e3d6000fd5b50611d65565b600481015460078201546040516001600160a01b039092169181156108fc0291906000818181858888f19350505050158015611d16573d6000803e3d6000fd5b50600481015460078201546001600160a01b03909116906108fc90611d3b9034612967565b6040518115909202916000818181858888f19350505050158015611d63573d6000803e3d6000fd5b505b60028101546040516323b872dd60e01b81526001600160a01b038516916323b872dd91611d9991309133919060040161247f565b600060405180830381600087803b158015611db357600080fd5b505af1158015611dc7573d6000803e3d6000fd5b5050506005820180546001600160a01b031916331790555060088101805461ff001916610100179055611dfa600261206c565b600581015460048201546040516001600160a01b0392831692918216918616907f947311168d2a40fc244919c4730e9cdd04e55a2c2db85589585acb09f89efe1e90611e47908790612919565b60405180910390a45050600160005550565b60606000611e676001612068565b905060008060005b83811015611eca573360036000611e87846001612930565b81526020810191909152604001600020600401546001600160a01b03161415611eb857611eb5600184612930565b92505b80611ec28161297e565b915050611e6f565b5060008267ffffffffffffffff811115611ef457634e487b7160e01b600052604160045260246000fd5b604051908082528060200260200182016040528015611f2d57816020015b611f1a6121be565b815260200190600190039081611f125790505b50905060005b848110156106ab573360036000611f4b846001612930565b81526020810191909152604001600020600401546001600160a01b03161415612056576000611f7b826001612930565b6000818152600360208181526040928390208351610140810185528154815260018201546001600160a01b0390811693820193909352600282015494810194909452918201548116606084015260048201548116608084015260058201541660a0830152600681015460c0830152600781015460e0830152600881015460ff80821615156101008086019190915290910416151561012083015285519293509185908790811061203b57634e487b7160e01b600052603260045260246000fd5b6020908102919091010152612051600186612930565b945050505b806120608161297e565b915050611f33565b5490565b80546001019055565b60006120808361209a565b8015612091575061209183836120cd565b90505b92915050565b60006120ad826301ffc9a760e01b6120cd565b801561209457506120c6826001600160e01b03196120cd565b1592915050565b6000806301ffc9a760e01b836040516024016120e99190612529565b604051602081830303815290604052906001600160e01b0319166020820180516001600160e01b0383818316178352505050509050600080856001600160a01b03166175308460405161213c9190612446565b6000604051808303818686fa925050503d8060008114612178576040519150601f19603f3d011682016040523d82523d6000602084013e61217d565b606091505b50915091506020815110156121985760009350505050612094565b8180156121b45750808060200190518101906121b49190612325565b9695505050505050565b6040805161014081018252600080825260208201819052918101829052606081018290526080810182905260a0810182905260c0810182905260e08101829052610100810182905261012081019190915290565b60405180606001604052806000815260200160006001600160a01b03168152602001600081525090565b60006020828403121561224d578081fd5b8151612258816129af565b9392505050565b60008060408385031215612271578081fd5b823561227c816129af565b946020939093013593505050565b6000806040838503121561229c578182fd5b82516122a7816129af565b6020939093015192949293505050565b6000806000606084860312156122cb578081fd5b83356122d6816129af565b95602085013595506040909401359392505050565b60008060008060808587031215612300578081fd5b843561230b816129af565b966020860135965060408601359560600135945092505050565b600060208284031215612336578081fd5b81518015158114612258578182fd5b600060208284031215612356578081fd5b5035919050565b6001600160a01b03169052565b6000815180845260208085019450808401835b83811015612435578151805188528381015161239b858a018261235d565b50604081810151908901526060808201516123b8828b018261235d565b50506080808201516123cc828b018261235d565b505060a0808201516123e0828b018261235d565b505060c0818101519089015260e0808201519089015261010080820151612409828b0182612440565b5050610120908101519061241f89820183612440565b505061014096909601959082019060010161237d565b509495945050505050565b15159052565b60008251815b81811015612466576020818601810151858301520161244c565b818111156124745782828501525b509190910192915050565b6001600160a01b039384168152919092166020820152604081019190915260600190565b600060208252612091602083018461236a565b600060408083526124c98184018661236a565b838103602085810191909152855180835286820192820190855b8181101561251b57845180518452848101516001600160a01b03168585015286015186840152938301936060909201916001016124e3565b509098975050505050505050565b6001600160e01b031991909116815260200190565b6020808252601c908201527f536f6c64206974656d732063616e277420626520756e6c697374656400000000604082015260600190565b60208082526017908201527f4974656d206973206e6f7420666f722061756374696f6e000000000000000000604082015260600190565b6020808252601b908201527f436f6e7472616374206e6565647320746f206265204552433732310000000000604082015260600190565b60208082526019908201527f41756374696f6e2068617320616c726561647920656e64656400000000000000604082015260600190565b6020808252601d908201527f4f6e6c79206f776e65722063616e20637265617465206c697374696e67000000604082015260600190565b6020808252818101527f53656e646572206973206e6f7420746865206869676865737420626964646572604082015260600190565b60208082526014908201527329b2b73232b91034b9903737ba103634b9ba32b960611b604082015260600190565b602080825260409082018190527f506c65617365207375626d6974207468652061736b696e672070726963652069908201527f6e206f7264657220746f20636f6d706c65746520746865207075726368617365606082015260800190565b6020808252601c908201527f41756374696f6e2074696d652063616e27742062652030206461797300000000604082015260600190565b6020808252602d908201527f596f75206e65656420746f20706179206d6f7265207468616e2063757272656e60408201526c1d081a1a59da195cdd08189a59609a1b606082015260800190565b6020808252601a908201527f4974656d2068617320616c7265616479206265656e20736f6c64000000000000604082015260600190565b60208082526019908201527f41756374696f6e20686173206e6f742079657420656e64656400000000000000604082015260600190565b60208082526017908201527f54686973206974656d206973206f6e2061756374696f6e000000000000000000604082015260600190565b6020808252601f908201527f5265656e7472616e637947756172643a207265656e7472616e742063616c6c00604082015260600190565b60208082526025908201527f596f75206e65656420746f20706179206d6f7265207468616e20666c6f6f7220604082015264707269636560d81b606082015260800190565b6020808252601c908201527f5072696365206d757374206265206174206c6561737420312077656900000000604082015260600190565b602080825260119082015270125d195b48185b1c9958591e481cdbdb19607a1b604082015260600190565b90815260200190565b918252602082015260400190565b6000821982111561294357612943612999565b500190565b600081600019048311821515161561296257612962612999565b500290565b60008282101561297957612979612999565b500390565b600060001982141561299257612992612999565b5060010190565b634e487b7160e01b600052601160045260246000fd5b6001600160a01b03811681146129c457600080fd5b5056fea264697066735822122022750c6bc053edd5e52b4876fb0f14581972c65906a0419e42df1673a735f51a64736f6c63430008000033",
  "linkReferences": {},
  "deployedLinkReferences": {}
}