{
  "_format": "hh-sol-artifact-1",
  "contractName": "ReefRoyalty",
  "sourceName": "contracts/ReefRoyalty.sol",
  "abi": [
    {
      "inputs": [
        {
          "internalType": "string",
          "name": "name_",
          "type": "string"
        },
        {
          "internalType": "string",
          "name": "symbol_",
          "type": "string"
        },
        {
          "internalType": "address",
          "name": "creator_",
          "type": "address"
        }
      ],
      "stateMutability": "nonpayable",
      "type": "constructor"
    },
    {
      "anonymous": false,
      "inputs": [
        {
          "indexed": true,
          "internalType": "address",
          "name": "owner",
          "type": "address"
        },
        {
          "indexed": true,
          "internalType": "address",
          "name": "approved",
          "type": "address"
        },
        {
          "indexed": true,
          "internalType": "uint256",
          "name": "tokenId",
          "type": "uint256"
        }
      ],
      "name": "Approval",
      "type": "event"
    },
    {
      "anonymous": false,
      "inputs": [
        {
          "indexed": true,
          "internalType": "address",
          "name": "owner",
          "type": "address"
        },
        {
          "indexed": true,
          "internalType": "address",
          "name": "operator",
          "type": "address"
        },
        {
          "indexed": false,
          "internalType": "bool",
          "name": "approved",
          "type": "bool"
        }
      ],
      "name": "ApprovalForAll",
      "type": "event"
    },
    {
      "anonymous": false,
      "inputs": [
        {
          "indexed": true,
          "internalType": "address",
          "name": "previousOwner",
          "type": "address"
        },
        {
          "indexed": true,
          "internalType": "address",
          "name": "newOwner",
          "type": "address"
        }
      ],
      "name": "OwnershipTransferred",
      "type": "event"
    },
    {
      "anonymous": false,
      "inputs": [
        {
          "indexed": true,
          "internalType": "address",
          "name": "from",
          "type": "address"
        },
        {
          "indexed": true,
          "internalType": "address",
          "name": "to",
          "type": "address"
        },
        {
          "indexed": true,
          "internalType": "uint256",
          "name": "tokenId",
          "type": "uint256"
        }
      ],
      "name": "Transfer",
      "type": "event"
    },
    {
      "inputs": [
        {
          "internalType": "address",
          "name": "to",
          "type": "address"
        },
        {
          "internalType": "uint256",
          "name": "tokenId",
          "type": "uint256"
        }
      ],
      "name": "approve",
      "outputs": [],
      "stateMutability": "nonpayable",
      "type": "function"
    },
    {
      "inputs": [
        {
          "internalType": "address",
          "name": "owner",
          "type": "address"
        }
      ],
      "name": "balanceOf",
      "outputs": [
        {
          "internalType": "uint256",
          "name": "",
          "type": "uint256"
        }
      ],
      "stateMutability": "view",
      "type": "function"
    },
    {
      "inputs": [
        {
          "internalType": "uint256",
          "name": "tokenId",
          "type": "uint256"
        }
      ],
      "name": "getApproved",
      "outputs": [
        {
          "internalType": "address",
          "name": "",
          "type": "address"
        }
      ],
      "stateMutability": "view",
      "type": "function"
    },
    {
      "inputs": [],
      "name": "getCreator",
      "outputs": [
        {
          "internalType": "address",
          "name": "",
          "type": "address"
        }
      ],
      "stateMutability": "view",
      "type": "function"
    },
    {
      "inputs": [
        {
          "internalType": "uint256",
          "name": "_tokenId",
          "type": "uint256"
        }
      ],
      "name": "getTokenRoyalty",
      "outputs": [
        {
          "internalType": "uint256",
          "name": "",
          "type": "uint256"
        }
      ],
      "stateMutability": "view",
      "type": "function"
    },
    {
      "inputs": [
        {
          "internalType": "address",
          "name": "owner",
          "type": "address"
        },
        {
          "internalType": "address",
          "name": "operator",
          "type": "address"
        }
      ],
      "name": "isApprovedForAll",
      "outputs": [
        {
          "internalType": "bool",
          "name": "",
          "type": "bool"
        }
      ],
      "stateMutability": "view",
      "type": "function"
    },
    {
      "inputs": [
        {
          "internalType": "string",
          "name": "metaHash",
          "type": "string"
        },
        {
          "internalType": "uint256",
          "name": "royalty_",
          "type": "uint256"
        }
      ],
      "name": "mint",
      "outputs": [],
      "stateMutability": "nonpayable",
      "type": "function"
    },
    {
      "inputs": [],
      "name": "name",
      "outputs": [
        {
          "internalType": "string",
          "name": "",
          "type": "string"
        }
      ],
      "stateMutability": "view",
      "type": "function"
    },
    {
      "inputs": [],
      "name": "owner",
      "outputs": [
        {
          "internalType": "address",
          "name": "",
          "type": "address"
        }
      ],
      "stateMutability": "view",
      "type": "function"
    },
    {
      "inputs": [
        {
          "internalType": "uint256",
          "name": "tokenId",
          "type": "uint256"
        }
      ],
      "name": "ownerOf",
      "outputs": [
        {
          "internalType": "address",
          "name": "",
          "type": "address"
        }
      ],
      "stateMutability": "view",
      "type": "function"
    },
    {
      "inputs": [],
      "name": "renounceOwnership",
      "outputs": [],
      "stateMutability": "nonpayable",
      "type": "function"
    },
    {
      "inputs": [
        {
          "internalType": "uint256",
          "name": "_tokenId",
          "type": "uint256"
        },
        {
          "internalType": "uint256",
          "name": "_salePrice",
          "type": "uint256"
        }
      ],
      "name": "royaltyInfo",
      "outputs": [
        {
          "internalType": "address",
          "name": "receiver",
          "type": "address"
        },
        {
          "internalType": "uint256",
          "name": "royaltyAmount",
          "type": "uint256"
        }
      ],
      "stateMutability": "view",
      "type": "function"
    },
    {
      "inputs": [
        {
          "internalType": "address",
          "name": "from",
          "type": "address"
        },
        {
          "internalType": "address",
          "name": "to",
          "type": "address"
        },
        {
          "internalType": "uint256",
          "name": "tokenId",
          "type": "uint256"
        }
      ],
      "name": "safeTransferFrom",
      "outputs": [],
      "stateMutability": "nonpayable",
      "type": "function"
    },
    {
      "inputs": [
        {
          "internalType": "address",
          "name": "from",
          "type": "address"
        },
        {
          "internalType": "address",
          "name": "to",
          "type": "address"
        },
        {
          "internalType": "uint256",
          "name": "tokenId",
          "type": "uint256"
        },
        {
          "internalType": "bytes",
          "name": "_data",
          "type": "bytes"
        }
      ],
      "name": "safeTransferFrom",
      "outputs": [],
      "stateMutability": "nonpayable",
      "type": "function"
    },
    {
      "inputs": [
        {
          "internalType": "address",
          "name": "operator",
          "type": "address"
        },
        {
          "internalType": "bool",
          "name": "approved",
          "type": "bool"
        }
      ],
      "name": "setApprovalForAll",
      "outputs": [],
      "stateMutability": "nonpayable",
      "type": "function"
    },
    {
      "inputs": [
        {
          "internalType": "bytes4",
          "name": "interfaceId",
          "type": "bytes4"
        }
      ],
      "name": "supportsInterface",
      "outputs": [
        {
          "internalType": "bool",
          "name": "",
          "type": "bool"
        }
      ],
      "stateMutability": "view",
      "type": "function"
    },
    {
      "inputs": [],
      "name": "symbol",
      "outputs": [
        {
          "internalType": "string",
          "name": "",
          "type": "string"
        }
      ],
      "stateMutability": "view",
      "type": "function"
    },
    {
      "inputs": [
        {
          "internalType": "uint256",
          "name": "index",
          "type": "uint256"
        }
      ],
      "name": "tokenByIndex",
      "outputs": [
        {
          "internalType": "uint256",
          "name": "",
          "type": "uint256"
        }
      ],
      "stateMutability": "view",
      "type": "function"
    },
    {
      "inputs": [
        {
          "internalType": "address",
          "name": "owner",
          "type": "address"
        },
        {
          "internalType": "uint256",
          "name": "index",
          "type": "uint256"
        }
      ],
      "name": "tokenOfOwnerByIndex",
      "outputs": [
        {
          "internalType": "uint256",
          "name": "",
          "type": "uint256"
        }
      ],
      "stateMutability": "view",
      "type": "function"
    },
    {
      "inputs": [
        {
          "internalType": "uint256",
          "name": "tokenId",
          "type": "uint256"
        }
      ],
      "name": "tokenURI",
      "outputs": [
        {
          "internalType": "string",
          "name": "",
          "type": "string"
        }
      ],
      "stateMutability": "view",
      "type": "function"
    },
    {
      "inputs": [],
      "name": "totalSupply",
      "outputs": [
        {
          "internalType": "uint256",
          "name": "",
          "type": "uint256"
        }
      ],
      "stateMutability": "view",
      "type": "function"
    },
    {
      "inputs": [
        {
          "internalType": "address",
          "name": "from",
          "type": "address"
        },
        {
          "internalType": "address",
          "name": "to",
          "type": "address"
        },
        {
          "internalType": "uint256",
          "name": "tokenId",
          "type": "uint256"
        }
      ],
      "name": "transferFrom",
      "outputs": [],
      "stateMutability": "nonpayable",
      "type": "function"
    },
    {
      "inputs": [
        {
          "internalType": "address",
          "name": "newOwner",
          "type": "address"
        }
      ],
      "name": "transferOwnership",
      "outputs": [],
      "stateMutability": "nonpayable",
      "type": "function"
    },
    {
      "inputs": [],
      "name": "withdraw",
      "outputs": [],
      "stateMutability": "nonpayable",
      "type": "function"
    },
    {
      "stateMutability": "payable",
      "type": "receive"
    }
  ],
  "bytecode": "0x60806040523480156200001157600080fd5b50604051620024db380380620024db83398101604081905262000034916200024b565b82826200004a62000044620000a6565b620000aa565b60018055815162000063906002906020850190620000fa565b50805162000079906003906020840190620000fa565b5050600d80546001600160a01b0319166001600160a01b0393909316929092179091555062000327915050565b3390565b600080546001600160a01b038381166001600160a01b0319831681178455604051919092169283917f8be0079c531659141344cd1fd0a4f28419497f9722a3daafe3b4186f6b6457e09190a35050565b8280546200010890620002d4565b90600052602060002090601f0160209004810192826200012c576000855562000177565b82601f106200014757805160ff191683800117855562000177565b8280016001018555821562000177579182015b82811115620001775782518255916020019190600101906200015a565b506200018592915062000189565b5090565b5b808211156200018557600081556001016200018a565b600082601f830112620001b1578081fd5b81516001600160401b0380821115620001ce57620001ce62000311565b6040516020601f8401601f1916820181018381118382101715620001f657620001f662000311565b60405283825285840181018710156200020d578485fd5b8492505b8383101562000230578583018101518284018201529182019162000211565b838311156200024157848185840101525b5095945050505050565b60008060006060848603121562000260578283fd5b83516001600160401b038082111562000277578485fd5b6200028587838801620001a0565b945060208601519150808211156200029b578384fd5b50620002aa86828701620001a0565b604086015190935090506001600160a01b0381168114620002c9578182fd5b809150509250925092565b600281046001821680620002e957607f821691505b602082108114156200030b57634e487b7160e01b600052602260045260246000fd5b50919050565b634e487b7160e01b600052604160045260246000fd5b6121a480620003376000396000f3fe60806040526004361061014f5760003560e01c80634f6ccce7116100b657806395d89b411161006f57806395d89b41146103a6578063a22cb465146103bb578063b88d4fde146103db578063c87b56dd146103fb578063e985e9c51461041b578063f2fde38b1461043b57610156565b80634f6ccce7146102fc5780636352211e1461031c57806370a082311461033c578063715018a61461035c578063833b7b78146103715780638da5cb5b1461039157610156565b806318160ddd1161010857806318160ddd1461023757806323b872dd146102595780632a55205a146102795780632f745c59146102a75780633ccfd60b146102c757806342842e0e146102dc57610156565b806301ffc9a71461015b578063056b01ce1461019157806306fdde03146101b3578063081812fc146101d5578063095ea7b3146102025780630ee2cb101461022257610156565b3661015657005b600080fd5b34801561016757600080fd5b5061017b61017636600461186a565b61045b565b6040516101889190611a13565b60405180910390f35b34801561019d57600080fd5b506101b16101ac3660046118a2565b6104be565b005b3480156101bf57600080fd5b506101c8610566565b6040516101889190611a1e565b3480156101e157600080fd5b506101f56101f0366004611915565b6105f8565b60405161018891906119a9565b34801561020e57600080fd5b506101b161021d366004611841565b61063b565b34801561022e57600080fd5b506101f56106d3565b34801561024357600080fd5b5061024c6106e2565b6040516101889190612015565b34801561026557600080fd5b506101b1610274366004611700565b6106e8565b34801561028557600080fd5b5061029961029436600461192d565b610720565b6040516101889291906119fa565b3480156102b357600080fd5b5061024c6102c2366004611841565b61075e565b3480156102d357600080fd5b506101b16107b0565b3480156102e857600080fd5b506101b16102f7366004611700565b610816565b34801561030857600080fd5b5061024c610317366004611915565b610831565b34801561032857600080fd5b506101f5610337366004611915565b61088c565b34801561034857600080fd5b5061024c6103573660046116bd565b6108c1565b34801561036857600080fd5b506101b1610905565b34801561037d57600080fd5b5061024c61038c366004611915565b610950565b34801561039d57600080fd5b506101f5610962565b3480156103b257600080fd5b506101c8610971565b3480156103c757600080fd5b506101b16103d6366004611807565b610980565b3480156103e757600080fd5b506101b16103f636600461173b565b610996565b34801561040757600080fd5b506101c8610416366004611915565b6109d5565b34801561042757600080fd5b5061017b6104363660046116d7565b6109e0565b34801561044757600080fd5b506101b16104563660046116bd565b610a0e565b60006001600160e01b031982166380ac58cd60e01b148061048c57506001600160e01b0319821663780e9d6360e01b145b806104a757506001600160e01b0319821663152a902d60e11b145b806104b657506104b682610a7c565b90505b919050565b600d546001600160a01b031633146104f15760405162461bcd60e51b81526004016104e890611c6f565b60405180910390fd5b6104fb600e610aa1565b6000610507600e610aaa565b90506105133382610aae565b6105538185858080601f016020809104026020016040519081016040528093929190818152602001838380828437600092019190915250610b8d92505050565b6000908152600f60205260409020555050565b606060028054610575906120ac565b80601f01602080910402602001604051908101604052809291908181526020018280546105a1906120ac565b80156105ee5780601f106105c3576101008083540402835291602001916105ee565b820191906000526020600020905b8154815290600101906020018083116105d157829003601f168201915b5050505050905090565b600061060382610bd1565b61061f5760405162461bcd60e51b81526004016104e890611e1e565b506000908152600660205260409020546001600160a01b031690565b60006106468261088c565b9050806001600160a01b0316836001600160a01b0316141561067a5760405162461bcd60e51b81526004016104e890611f37565b806001600160a01b031661068c610bee565b6001600160a01b031614806106a857506106a881610436610bee565b6106c45760405162461bcd60e51b81526004016104e890611c12565b6106ce8383610bf2565b505050565b600d546001600160a01b031690565b600a5490565b6106f96106f3610bee565b82610c60565b6107155760405162461bcd60e51b81526004016104e890611f78565b6106ce838383610ce5565b600d546000838152600f60205260408120546001600160a01b039092169160649061074b908561204a565b6107559190612036565b90509250929050565b6000610769836108c1565b82106107875760405162461bcd60e51b81526004016104e890611a31565b506001600160a01b03919091166000908152600860209081526040808320938352929052205490565b600d546001600160a01b031633146107da5760405162461bcd60e51b81526004016104e890611c6f565b600d546040516001600160a01b03909116904780156108fc02916000818181858888f19350505050158015610813573d6000803e3d6000fd5b50565b6106ce83838360405180602001604052806000815250610996565b600061083b6106e2565b82106108595760405162461bcd60e51b81526004016104e890611fc9565b600a828154811061087a57634e487b7160e01b600052603260045260246000fd5b90600052602060002001549050919050565b6000818152600460205260408120546001600160a01b0316806104b65760405162461bcd60e51b81526004016104e890611d01565b60006001600160a01b0382166108e95760405162461bcd60e51b81526004016104e890611cb7565b506001600160a01b031660009081526005602052604090205490565b61090d610bee565b6001600160a01b031661091e610962565b6001600160a01b0316146109445760405162461bcd60e51b81526004016104e890611e6a565b61094e6000610e12565b565b6000908152600f602052604090205490565b6000546001600160a01b031690565b606060038054610575906120ac565b61099261098b610bee565b8383610e62565b5050565b6109a76109a1610bee565b83610c60565b6109c35760405162461bcd60e51b81526004016104e890611f78565b6109cf84848484610f05565b50505050565b60606104b682610f38565b6001600160a01b03918216600090815260076020908152604080832093909416825291909152205460ff1690565b610a16610bee565b6001600160a01b0316610a27610962565b6001600160a01b031614610a4d5760405162461bcd60e51b81526004016104e890611e6a565b6001600160a01b038116610a735760405162461bcd60e51b81526004016104e890611ace565b61081381610e12565b60006001600160e01b0319821663780e9d6360e01b14806104b657506104b682611051565b80546001019055565b5490565b6001600160a01b038216610ad45760405162461bcd60e51b81526004016104e890611d98565b610add81610bd1565b15610afa5760405162461bcd60e51b81526004016104e890611b14565b610b0660008383611091565b6001600160a01b0382166000908152600560205260408120805460019290610b2f90849061201e565b909155505060008181526004602052604080822080546001600160a01b0319166001600160a01b03861690811790915590518392907fddf252ad1be2c89b69c2b068fc378daa952ba7f163c4a11628f55a4df523b3ef908290a45050565b610b9682610bd1565b610bb25760405162461bcd60e51b81526004016104e890611d4a565b6000828152600c6020908152604090912082516106ce9284019061160d565b6000908152600460205260409020546001600160a01b0316151590565b3390565b600081815260066020526040902080546001600160a01b0319166001600160a01b0384169081179091558190610c278261088c565b6001600160a01b03167f8c5be1e5ebec7d5bd14f71427d1e84f3dd0314c0f7b2291e5b200ac8c7c3b92560405160405180910390a45050565b6000610c6b82610bd1565b610c875760405162461bcd60e51b81526004016104e890611bc6565b6000610c928361088c565b9050806001600160a01b0316846001600160a01b03161480610ccd5750836001600160a01b0316610cc2846105f8565b6001600160a01b0316145b80610cdd5750610cdd81856109e0565b949350505050565b826001600160a01b0316610cf88261088c565b6001600160a01b031614610d1e5760405162461bcd60e51b81526004016104e890611e9f565b6001600160a01b038216610d445760405162461bcd60e51b81526004016104e890611b4b565b610d4f838383611091565b610d5a600082610bf2565b6001600160a01b0383166000908152600560205260408120805460019290610d83908490612069565b90915550506001600160a01b0382166000908152600560205260408120805460019290610db190849061201e565b909155505060008181526004602052604080822080546001600160a01b0319166001600160a01b0386811691821790925591518493918716917fddf252ad1be2c89b69c2b068fc378daa952ba7f163c4a11628f55a4df523b3ef91a4505050565b600080546001600160a01b038381166001600160a01b0319831681178455604051919092169283917f8be0079c531659141344cd1fd0a4f28419497f9722a3daafe3b4186f6b6457e09190a35050565b816001600160a01b0316836001600160a01b03161415610e945760405162461bcd60e51b81526004016104e890611b8f565b6001600160a01b0383811660008181526007602090815260408083209487168084529490915290819020805460ff1916851515179055517f17307eab39ab6107e8899845ad3d59bd9653f200f220920489ca2b5937696c3190610ef8908590611a13565b60405180910390a3505050565b610f10848484610ce5565b610f1c8484848461109c565b6109cf5760405162461bcd60e51b81526004016104e890611a7c565b6060610f4382610bd1565b610f5f5760405162461bcd60e51b81526004016104e890611dcd565b6000828152600c602052604081208054610f78906120ac565b80601f0160208091040260200160405190810160405280929190818152602001828054610fa4906120ac565b8015610ff15780601f10610fc657610100808354040283529160200191610ff1565b820191906000526020600020905b815481529060010190602001808311610fd457829003601f168201915b5050505050905060006110026111b7565b9050805160001415611016575090506104b9565b81511561104857808260405160200161103092919061197a565b604051602081830303815290604052925050506104b9565b610cdd846111c9565b60006001600160e01b031982166380ac58cd60e01b148061108257506001600160e01b03198216635b5e139f60e01b145b806104b657506104b68261124c565b6106ce838383611265565b60006110b0846001600160a01b03166112ee565b156111ac57836001600160a01b031663150b7a026110cc610bee565b8786866040518563ffffffff1660e01b81526004016110ee94939291906119bd565b602060405180830381600087803b15801561110857600080fd5b505af1925050508015611138575060408051601f3d908101601f1916820190925261113591810190611886565b60015b611192573d808015611166576040519150601f19603f3d011682016040523d82523d6000602084013e61116b565b606091505b50805161118a5760405162461bcd60e51b81526004016104e890611a7c565b805181602001fd5b6001600160e01b031916630a85bd0160e11b149050610cdd565b506001949350505050565b60408051602081019091526000815290565b60606111d482610bd1565b6111f05760405162461bcd60e51b81526004016104e890611ee8565b60006111fa6111b7565b9050600081511161121a5760405180602001604052806000815250611245565b80611224846112f4565b60405160200161123592919061197a565b6040516020818303038152906040525b9392505050565b6001600160e01b031981166301ffc9a760e01b14919050565b6112708383836106ce565b6001600160a01b03831661128c576112878161140f565b6112af565b816001600160a01b0316836001600160a01b0316146112af576112af8382611453565b6001600160a01b0382166112cb576112c6816114f0565b6106ce565b826001600160a01b0316826001600160a01b0316146106ce576106ce82826115c9565b3b151590565b60608161131957506040805180820190915260018152600360fc1b60208201526104b9565b8160005b8115611343578061132d816120e7565b915061133c9050600a83612036565b915061131d565b60008167ffffffffffffffff81111561136c57634e487b7160e01b600052604160045260246000fd5b6040519080825280601f01601f191660200182016040528015611396576020820181803683370190505b5090505b8415610cdd576113ab600183612069565b91506113b8600a86612102565b6113c390603061201e565b60f81b8183815181106113e657634e487b7160e01b600052603260045260246000fd5b60200101906001600160f81b031916908160001a905350611408600a86612036565b945061139a565b600a80546000838152600b60205260408120829055600182018355919091527fc65a7bb8d6351c1cf70c95a316cc6a92839c986682d98bc35f958f4883f9d2a80155565b60006001611460846108c1565b61146a9190612069565b6000838152600960205260409020549091508082146114bd576001600160a01b03841660009081526008602090815260408083208584528252808320548484528184208190558352600990915290208190555b5060009182526009602090815260408084208490556001600160a01b039094168352600881528383209183525290812055565b600a5460009061150290600190612069565b6000838152600b6020526040812054600a805493945090928490811061153857634e487b7160e01b600052603260045260246000fd5b9060005260206000200154905080600a838154811061156757634e487b7160e01b600052603260045260246000fd5b6000918252602080832090910192909255828152600b9091526040808220849055858252812055600a8054806115ad57634e487b7160e01b600052603160045260246000fd5b6001900381819060005260206000200160009055905550505050565b60006115d4836108c1565b6001600160a01b039093166000908152600860209081526040808320868452825280832085905593825260099052919091209190915550565b828054611619906120ac565b90600052602060002090601f01602090048101928261163b5760008555611681565b82601f1061165457805160ff1916838001178555611681565b82800160010185558215611681579182015b82811115611681578251825591602001919060010190611666565b5061168d929150611691565b5090565b5b8082111561168d5760008155600101611692565b80356001600160a01b03811681146104b957600080fd5b6000602082840312156116ce578081fd5b611245826116a6565b600080604083850312156116e9578081fd5b6116f2836116a6565b9150610755602084016116a6565b600080600060608486031215611714578081fd5b61171d846116a6565b925061172b602085016116a6565b9150604084013590509250925092565b60008060008060808587031215611750578081fd5b611759856116a6565b935060206117688187016116a6565b935060408601359250606086013567ffffffffffffffff8082111561178b578384fd5b818801915088601f83011261179e578384fd5b8135818111156117b0576117b0612142565b604051601f8201601f19168101850183811182821017156117d3576117d3612142565b60405281815283820185018b10156117e9578586fd5b81858501868301379081019093019390935250939692955090935050565b60008060408385031215611819578182fd5b611822836116a6565b915060208301358015158114611836578182fd5b809150509250929050565b60008060408385031215611853578182fd5b61185c836116a6565b946020939093013593505050565b60006020828403121561187b578081fd5b813561124581612158565b600060208284031215611897578081fd5b815161124581612158565b6000806000604084860312156118b6578283fd5b833567ffffffffffffffff808211156118cd578485fd5b818601915086601f8301126118e0578485fd5b8135818111156118ee578586fd5b8760208285010111156118ff578586fd5b6020928301989097509590910135949350505050565b600060208284031215611926578081fd5b5035919050565b6000806040838503121561193f578182fd5b50508035926020909101359150565b60008151808452611966816020860160208601612080565b601f01601f19169290920160200192915050565b6000835161198c818460208801612080565b8351908301906119a0818360208801612080565b01949350505050565b6001600160a01b0391909116815260200190565b6001600160a01b03858116825284166020820152604081018390526080606082018190526000906119f09083018461194e565b9695505050505050565b6001600160a01b03929092168252602082015260400190565b901515815260200190565b600060208252611245602083018461194e565b6020808252602b908201527f455243373231456e756d657261626c653a206f776e657220696e646578206f7560408201526a74206f6620626f756e647360a81b606082015260800190565b60208082526032908201527f4552433732313a207472616e7366657220746f206e6f6e20455243373231526560408201527131b2b4bb32b91034b6b83632b6b2b73a32b960711b606082015260800190565b60208082526026908201527f4f776e61626c653a206e6577206f776e657220697320746865207a65726f206160408201526564647265737360d01b606082015260800190565b6020808252601c908201527f4552433732313a20746f6b656e20616c7265616479206d696e74656400000000604082015260600190565b60208082526024908201527f4552433732313a207472616e7366657220746f20746865207a65726f206164646040820152637265737360e01b606082015260800190565b60208082526019908201527f4552433732313a20617070726f766520746f2063616c6c657200000000000000604082015260600190565b6020808252602c908201527f4552433732313a206f70657261746f7220717565727920666f72206e6f6e657860408201526b34b9ba32b73a103a37b5b2b760a11b606082015260800190565b60208082526038908201527f4552433732313a20617070726f76652063616c6c6572206973206e6f74206f7760408201527f6e6572206e6f7220617070726f76656420666f7220616c6c0000000000000000606082015260800190565b60208082526028908201527f526f79616c747920436f6e7472616374203a2043616c6c6572206973206e6f746040820152671031b932b0ba37b960c11b606082015260800190565b6020808252602a908201527f4552433732313a2062616c616e636520717565727920666f7220746865207a65604082015269726f206164647265737360b01b606082015260800190565b60208082526029908201527f4552433732313a206f776e657220717565727920666f72206e6f6e657869737460408201526832b73a103a37b5b2b760b91b606082015260800190565b6020808252602e908201527f45524337323155524953746f726167653a2055524920736574206f66206e6f6e60408201526d32bc34b9ba32b73a103a37b5b2b760911b606082015260800190565b6020808252818101527f4552433732313a206d696e7420746f20746865207a65726f2061646472657373604082015260600190565b60208082526031908201527f45524337323155524953746f726167653a2055524920717565727920666f72206040820152703737b732bc34b9ba32b73a103a37b5b2b760791b606082015260800190565b6020808252602c908201527f4552433732313a20617070726f76656420717565727920666f72206e6f6e657860408201526b34b9ba32b73a103a37b5b2b760a11b606082015260800190565b6020808252818101527f4f776e61626c653a2063616c6c6572206973206e6f7420746865206f776e6572604082015260600190565b60208082526029908201527f4552433732313a207472616e73666572206f6620746f6b656e2074686174206960408201526839903737ba1037bbb760b91b606082015260800190565b6020808252602f908201527f4552433732314d657461646174613a2055524920717565727920666f72206e6f60408201526e3732bc34b9ba32b73a103a37b5b2b760891b606082015260800190565b60208082526021908201527f4552433732313a20617070726f76616c20746f2063757272656e74206f776e656040820152603960f91b606082015260800190565b60208082526031908201527f4552433732313a207472616e736665722063616c6c6572206973206e6f74206f6040820152701ddb995c881b9bdc88185c1c1c9bdd9959607a1b606082015260800190565b6020808252602c908201527f455243373231456e756d657261626c653a20676c6f62616c20696e646578206f60408201526b7574206f6620626f756e647360a01b606082015260800190565b90815260200190565b6000821982111561203157612031612116565b500190565b6000826120455761204561212c565b500490565b600081600019048311821515161561206457612064612116565b500290565b60008282101561207b5761207b612116565b500390565b60005b8381101561209b578181015183820152602001612083565b838111156109cf5750506000910152565b6002810460018216806120c057607f821691505b602082108114156120e157634e487b7160e01b600052602260045260246000fd5b50919050565b60006000198214156120fb576120fb612116565b5060010190565b6000826121115761211161212c565b500690565b634e487b7160e01b600052601160045260246000fd5b634e487b7160e01b600052601260045260246000fd5b634e487b7160e01b600052604160045260246000fd5b6001600160e01b03198116811461081357600080fdfea2646970667358221220a4b890e6cceac868f4028a71b7062657d5587dfba75cd20c7434e9da16ad138064736f6c63430008000033",
  "linkReferences": {},
  "deployedLinkReferences": {}
}